:100000000C946C120C949D120C949D120C949D12E5
:100010000C949D120C949D120C949D120C949D12A4
:100020000C949D120C949D120C949D120C949D1294
:100030000C949D120C949D120C949D120C949D1284
:100040000C949D120C949D120C949D120C949D1274
:100050000C949D120C949D120C949D120C941141C1
:100060000C949D120C9410320C9438310C949D1207
:100070000C949D120C949D120C949D120C949D1244
:100080000C949D120C949D120C949D120C949D1234
:100090000C94DD310C94F9300C949D120C949D124B
:1000A0000C949D120C949D120C949D120C949D1214
:1000B0000C949D120C949D120C949D120C949D1204
:1000C0000C949D120C949D120C949D120C94AA31C8
:1000D0000C94BA300C949D120C9477310C947B30B4
:1000E0000C949D126040634056405A409A406740CD
:1000F0006B407140754079407F40834087409A4013
:100100008D40914095400C948D400C94682C0C943B
:10011000F1240C943B1E0C949A400C94AE220C9447
:1001200068290C9483400C94132E0C9456400C9424
:100130005A400C9487400C9467400C9450330C94B4
:10014000EB2D0C94B6290C94582C0C9463400C9411
:1001500091400C9495400C94AC290C9433230C944E
:10016000742C0C940A1F0C94872C0C9479400C94DA
:1001700075400C94852D0C94162B0C9471400C94A6
:10018000193B0C948D220C94572C0C94B41C0C9499
:10019000363B0C947F400C94802C0C941C520C9495
:1001A000493B0C94A52D0C946B400C94382D0C9469
:1001B000C12D0C94B72A0C9479290C9460400C94AE
:1001C000AE530C947A2D00000000050001000003DE
:1001D0000D0602F4050007050901F40A000A0C0ADD
:1001E00000F51900090F0A01F32A00100D1000F4A0
:1001F00044000C0D0D01F4580003050501F45A00EC
:1002000006110601F4670006110600F474000506E5
:100210000701F4780007080B02F97F0003050401C9
:10022000FF810005020600FB830003020401FF8436
:1002300000050D0500F48D00090D0A01F49C000570
:100240000D0A02F4A500090D0A01F4B400080D0A14
:1002500001F4C100080D0A02F4CE00090D0A01F4F0
:10026000DD00090D0A01F4EC00090D0A00F4FB00A1
:100270000A0D0A00F40C01090D0A01F41B0103091F
:100280000401F81F01030C0401F8240109090B0102
:10029000F82F0109060B01FA360109090B01F84193
:1002A00001090D0B01F45001100F1200F46E010C46
:1002B0000D0D00F482010B0D0D01F494010C0D0DD8
:1002C00001F4A8010C0D0D01F4BC01090D0C01F4A1
:1002D000CB01090D0B01F4DA010B0D0E01F4EC0159
:1002E0000B0D0D01F4FE01030D0601F40302080DD0
:1002F0000A01F410020C0D0D01F42402080D0B018B
:10030000F431020E0D1001F448020B0D0E01F45AE7
:10031000020D0D0E01F470020B0D0C01F482020DA2
:100320000E0E01F499020C0D0D01F4AD020B0D0C33
:1003300001F4BF02090D0C02F4CE020B0D0D01F405
:10034000E0020C0D0C00F4F402110D1100F4100386
:100350000C0D0C00F424030B0D0C01F43603090DF5
:100360000B01F4450304110601F44E03050D0500CD
:10037000F4570304110600F4600308080B01F46845
:10038000030A010A00046A0303020500F46B030A6E
:100390000A0A01F778030A0D0B01F48903090A0A16
:1003A00001F79503090D0B01F4A403090A0A01F7EB
:1003B000B003050D0601F4B903090E0B01F7C903DB
:1003C000090D0B01F4D803030D0501F4DD0304113D
:1003D0000500F4E603090D0A01F4F503030D050118
:1003E000F4FA030E0A1001F70C04090A0B01F718BE
:1003F000040A0A0B01F725040A0E0B01F73704095A
:100400000E0B01F74704060A0701F74F04090A0A11
:1004100001F75B04050C0601F56304090A0B01F7FB
:100420006F040A0A0A00F77C040E0A0E00F78E0415
:100430000A0A0A00F79B040A0E0A00F7AD04080A2C
:100440000901F7B70404110701F4C0040111050202
:10045000F4C30404110702F4CC0408020900FCFFF1
:10046000FFFE487EEFDFBF7440198667FDFF330C47
:10047000C333FEFF99866190101F1FDEFF3F83C0CC
:10048000FC1F09FCFEF7F1E04038107C30C620C6A6
:1004900040C6407C80399C013E0363026304630CC8
:1004A0003E081C0E01F83B83B83F01E03E6776E34F
:1004B000EE1CF3C7FE3F70FFF418631C738E38E325
:1004C0008E1870C3060861830E3871C71C71C63858
:1004D000E31840213E45283870E7FFE70E1CFC9CDE
:1004E000FFC0FC08C4231084621188003E3F9DDCDD
:1004F0007E3F1F8FC7E3F1DDCFE3E008FFF39CE70A
:1005000039CE73803E3FB8FC70381C1C1C1C1C1C70
:100510000FF7F83C7FE7E7070C0E0707E7E77E3C9D
:100520000E1E1E2E2E4E4E8EFFFF0E0E0E7F3F9085
:10053000180DE7FB9E070381F1FFE7C03E3F9CFCDF
:100540000EE7FBDFC7E3F1DDEFE3E0FFFFC0E0E034
:10055000607030381C0C0E0703803F1FEE3F87E3AE
:10056000CFC7FBCFE1F87F3DFE3F003E3FBDDC7EC5
:100570003F1FDEFF3B81F9CFE3C0FC0007E0FC003A
:1005800007E5E00083C7DF0C0780F81F0180FFFF4D
:10059000C0000FFFFC00703F03E0387DF1E08000F9
:1005A0003E3FB8FC70381C1C1C1C0E000381C003AD
:1005B000F00FFC1E0E380270E96319C219C611C68D
:1005C00033C63263FE73DC3C001FF807F00700F00F
:1005D0000F80F81D819C19C38C3FE7FE706607E011
:1005E00070FF9FFB83F07E0FFF3FF706E0FC1F8349
:1005F000FFEFF81F83FE78E707E00E00E00E00E053
:10060000070778F3FE1F80FF8FFCE0EE0EE07E0709
:10061000E07E07E07E0EE0EFFCFF80FFFFF81C0E9F
:1006200007FBFDC0E070381FFFF8FFFFF81C0E0746
:10063000FBFDC0E070381C0E000F87F9E3B83E01E7
:10064000C038FF1FE06E0DE39FD0F2E0FC1F83F087
:100650007E0FFFFFFF07E0FC1F83F07E0EFFFFFF12
:10066000FFFE0707070707070707E7E7E77E3CE006
:10067000EE1CE38E70EE0FC0FE0F70E70E38E1CE79
:100680000EE0E0E0E0E0E0E0E0E0E0E0E0E0FFFFFE
:10069000F87FE1FF87FE1FEC7FB37ECDFB37ECDFF9
:1006A0009E7E79F9E7E79CE0FE1FC3FC7FCFD9FB74
:1006B000BF37E7FC7F87F0FE0E0F81FF1E3CE0EEA8
:1006C00003F01F80FC07E03B839E3C7FC0F800FFE7
:1006D0009FFB87F07E0FC3FFF7FCE01C0380700ECA
:1006E000000F81FF1E3CE0EE03F01F80FC07E1BB22
:1006F0008F9E3C7FE0FB8008FF8FFCE0EE0EE0EE7B
:100700000EFFCFFCE0EE0EE0EE0EE0F03F0FFBC779
:10071000F07E01FC1FF03F00FC1DC7BFE1F8FFFFAA
:10072000C70381C0E070381C0E070381C0E0FC1FC6
:1007300083F07E0FC1F83F07E0FC1FC7BFE1F06008
:10074000670E70E30C30C39C1981981F80F00F0076
:10075000F0060061C3B8E19C70CE3CE336719B307B
:10076000ED98367C1B3C0F1E078F01C380E1807023
:10077000E78E39C1F81F80F00700F01F819C39C750
:100780000E70E0E0FC39C718C3B83607C0700E0120
:10079000C0380700E0FFFFC0E0E0F070707078380C
:1007A000381FFFF8FFEEEEEEEEEEEEEFF08610866D
:1007B000108430843080FF7777777777777FF018F1
:1007C0001C3C3E366663C3FFC0CC3F1FEE380E3F75
:1007D0009EEE3B9EFF9EE0E0380E03BCFFBCEE1F8A
:1007E00087E1F87F3BFEEF001F3FDC7C0E070380B4
:1007F000E37F8F000381C0E777FBBF8FC7E3F1FD85
:10080000EFF3B83E3F9CDC3FFFFF81C37F8F003B8F
:10081000DDFFB9CE739CE7003BBFDDFC7E3F1F8F41
:10082000EF7F9DC0FC77F1F0E070381DEFFF9F8FE8
:10083000C7E3F1F8FC7E38FC7FFFFFFE7707777790
:100840007777777FE0E070381C7E7773F1F8FE777A
:1008500039DC6E38FFFFFFFFFEEF7BFFFE39F8E764
:10086000E39F8E7E39F8E7E39F8E70EF7FF8FC7E82
:100870003F1F8FC7E3F1C01E1FE73B87E1F87E1DD6
:10088000CE7F8780EF3FEF3B87E1F87E1FCEFFBB37
:10089000CE0380E038003BBFFDFC7E3F1F8FEF7F23
:1008A0009DC0E070381CEFFF38E38E38E3803E3F98
:1008B000B8FC0FC3FC3FC7FF1F0073BFF739CE73EF
:1008C0009E70E3F1F8FC7E3F1F8FC7FFBDC0E1982B
:1008D0006739CC330DC3E0781E0700E31D9E6679AF
:1008E00099E677B8D2C3CF0F3C3CF07380739CE39A
:1008F000F0781E0781E0FC739CE0E1D86739CE33C5
:100900000EC3E0781E0300C070380E00FEFE0E1C01
:10091000383870E0FFFF3766666EE666666730FF60
:10092000FF80CE6666677666666EC0718E000000D8
:10093000000500010000060D0701F50A0006050A82
:1009400003F50E000B0D09FFF420000B0F09FFF457
:1009500035000E0D0F01F54C000D0D0E00F5620077
:1009600002050503F5640005100601F56E0005108B
:1009700006FFF5780008080901F5800009090A005A
:10098000F88B00030605FFFE8E0005020600FC90B2
:100990000003030400FF9200070C0600F59D000908
:1009A0000D0900F5AC00080D0900F5B900090D09A5
:1009B00000F5C800090D0900F5D700090C0900F57C
:1009C000E500090D0900F5F400090D0901F5030121
:1009D000090C0901F51101080D0900F51E01090DA9
:1009E0000900F52D0105090500F93301050B050086
:1009F000F93A01090A0A01F7460109050A01FA4C08
:100A000001090A0A01F75801080D0901F565010DF0
:100A10000D0F01F47B010C0D0D00F58F010C0D0C79
:100A200000F5A3010C0D0B01F5B7010E0D0D00F53E
:100A3000CE010D0D0B00F5E4010D0D0B00F5FA01D3
:100A40000C0D0D01F50E020F0D0E00F52702080D1D
:100A50000700F534020A0E0900F546020D0D0C00E0
:100A6000F55C020C0D0B00F57002110D1000F58CF9
:100A7000020E0D0D00F5A3020C0D0C01F5B7020CD2
:100A80000D0B00F5CB020C100C01F5E3020C0D0C64
:100A900000F5F702090D0900F506030B0D0B02F531
:100AA00018030C0D0D02F52C030C0C0D02F53E0382
:100AB000100C1102F556030D0D0D00F56C030B0D16
:100AC0000B02F57E030B0D0A00F59003080F06FFDD
:100AD000F59F03050C0702F5A703070F06FFF5B501
:100AE0000308070A01F5BC030901090003BE03045A
:100AF000030602F5C00309090900F9CB03080E0932
:100B000000F4D90308090800F9E2030A0E0900F409
:100B1000F40307090700F9FC030B1109FEF41404A0
:100B2000090C0900F92204090E0A00F43204050D2B
:100B30000501F53B04091006FFF54D040A0E0900F6
:100B4000F45F04050E0501F468040D090E00F97741
:100B50000408090900F9800408090900F989040A50
:100B60000C09FEF99804090C0900F9A60408080705
:100B700000F9AE0406090600F9B504050C0501F6F6
:100B8000BD0408090A01F9C60407080801F9CD04E3
:100B90000A080C01F9D7040A0909FFF9E304090C52
:100BA00008FFF9F10408090700F9FA040810060023
:100BB000F40A05010C0502F50C05081006FEF41CEC
:100BC0000508020A01FC0C31C6184108200E38E065
:100BD000CF38A2880240C8130643FC320640987FF3
:100BE00084C0903204C00101F04B9933247807800F
:100BF000380B89312664C7303C040038419F0648D1
:100C00003160CD032C0727813905C42610988466EE
:100C100010E003802203101900F00F3CF8CCC4E769
:100C2000473E38E1E797CF00FA8008888462108455
:100C300021084100208410842108C62311001818BF
:100C4000D63818F71818080402010FF840201008C9
:100C5000006D9500FFC0FF80060C306083041820F3
:100C6000C106000F0C8C6E371B1F8FC7C763B1897D
:100C70008380061E0E0E0C0C1C1818183838FC1F2A
:100C800013D0E070383818181808084FCFE01F113B
:100C9000C0E060C1F0380C060301198F000080C06D
:100CA000E1E0B0989C8CFF070301800F8808078360
:100CB000E0781C060301809C8780038707070703F1
:100CC000E399CCC663338987803FBF9080C0406082
:100CD000203030101808001E1331313A1C1C6EC62B
:100CE000C6C644380E1C8C6C363B1D8E7E0E070724
:100CF0000E0C0039CE00039CE039CE00018C22207E
:100D00000001C3C78E0601E03C078040FF80000061
:100D10000FF800601E03C0781C3C78F040001C27D0
:100D200037070E1C30604000E0E0E00F80C308048D
:100D3000C33C24E227333911C9937718007040FC73
:100D40000000801801803805805C09C11C1FC20C9E
:100D500020C40EF3F03FE0C70C71C71CE1F039C3AB
:100D60008E38E30E71E71CFF0007D1C738270270E9
:100D70000F00E00E00E00E006087181E003FE0301C
:100D8000E0C187071C1C607381CE073838C0E707B5
:100D90001C78FF801FF861C3043881CC0FE0E207A4
:100DA000103881811C18E38FFC003FF861C30438C0
:100DB00081CC0FE0E207103881801C00E00F80003A
:100DC0000791C7382700700F00E1FE0EE0CE0C60DF
:100DD000C71C1F001F7E1C383060E1C1C383060F93
:100DE000FC1C38387060C1C383870F9F003F0C0C18
:100DF0001C1C18383838307070F807C0E0380C0701
:100E000001C070180E0380C330DC1E001F78718390
:100E1000183981D00D00FC07603B818C1C70E18F7C
:100E2000BE001F00C00C01C01C01803803803803C5
:100E30000170370EFFE01E078707838382C3C162FC
:100E4000E0B17099304DB8279C138C11C60CC70FB8
:100E500047C03C3C3820E085C413104E423A087825
:100E600021E083840C1810004007C1CE38738770CE
:100E70007707F0FE0EE0EE1CE1C6383E003FC0C72B
:100E80000C71C71C718E3FC380300300700700F8DF
:100E90000007C0CE387387707707F07E0EE0EE0C47
:100EA000E1C6383601803C2DFC3FC0E70C71C71C01
:100EB000718E3F83B83B833C71C71CF9F00C898C61
:100EC000462380E0780E032190CCC9C07FE9DF3152
:100ED0004E21C0380601C0380600C0380FC07CF370
:100EE00082302704704604E04E08E08E08E10F309F
:100EF0003C00FC73823823843883903901A01C01A4
:100F0000C0180100F9F730E230C238C43BC43AE8F7
:100F10003CE83CF018F01860106010403F786183A6
:100F2000981D007003801C01600B809C0860C38FBB
:100F30007E00F9E618C21C81A0340700C018070023
:100F4000E01C0FC03FE6198721C0300E0380601CF3
:100F50000705C138EFFC0E08181818103030302083
:100F600060606040F0C610C610863086301E0C18D7
:100F700020C1830418306083063C00181C342666A8
:100F800043C3FF80C6300D9D8CCC6E263319BE66E0
:100F90000000781830303E73636363C6C6CC700FB0
:100FA0003B7070E0E0E2E4780000F01C060183E3AF
:100FB00030CC6319CC6338CF1D800E75CBBEDE38C4
:100FC000727800E0340C0180301F0180300601C0CF
:100FD000300600C030060480E0001C19D8CC6660E2
:100FE000E180F07E43218F00001E07030180D8FCC2
:100FF00076331999CCD6773039C00F318CC631AEE3
:10100000000381C00000E03018180C0603030180C3
:10101000C2C1C0000F00C0601806F390C8340F06AC
:10102000C19866B9C003CC63398C66318E707B99E8
:10103000AFCE6663673331998CCCE7C630737F736C
:10104000736367E6C7C61E336363C3C6C6CC781D29
:10105000C3B1CC6319CE6318CC3E1C0603E00D99D6
:101060008CCC6E7633199C7C060707C0763A3070BC
:10107000606060E03D14583860A2F008CCF631980A
:10108000C635C0E363666666CCCCFEECE6CD8B2647
:101090008E1820E4D936E5DA7719C6611039C7B061
:1010A000C0300C0300E15A6700398CC321A0D0681E
:1010B000380C0404140C003E460C081020701A0E64
:1010C000030E0C0C0818181060303030606060306F
:1010D000FFF00C060606040C0C0C0618181830302D
:1010E00030E0718F11007F96290001007F96280063
:1010F0003A0155C0021010C10141C50400228040D0
:10110000360168B00100B102B011B40102B60302A9
:10111000023BB701C63A0155F704A9512C82C0021F
:101120000D0DC1024300C20100C50400480048B4CF
:101130000100B60302023BE00F0F211C0B0E084911
:101140009838091103141000E10F0F2F2B0C0E0615
:10115000477637071104231E00B00100B3040200D4
:101160000000B40100D003074218D103000710D2D9
:10117000020102D3020102D4020102C005123B00A7
:101180000211C103101088C50103C60102C80C007A
:101190003236450616377577540C00CC0100F6033D
:1011A000010100CF03008130ED0464031281E803E4
:1011B000851078CB05392C003402F70120EA0200B3
:1011C00000B00100B102001BB40100C00121C10147
:1011D00011C5023F3CC701B5360148F201002601A6
:1011E00001E00F0F26240B0E0954A8460C17090F17
:1011F0000700E10F00191B0410072A4739030606F0
:1012000030380F360100B80101C0010EB00100C135
:101210000410100202C006003500000102C50104DE
:10122000D2020104CA0100EA0180B903FF83577F9B
:10123000967F96B60125C0065050013C1E08B407A3
:101240000240002A2A0D787F01F20B1616030808C7
:10125000080810041616FD03110235B2050C0C0027
:101260003333B70135BB012BC00104C20201FFC3F8
:101270000111C40120C6010FD002A4A1E00ED000CC
:10128000050E150D3743470915121619E10ED0004A
:10129000050D0C062D44400E1C1816193A01557FF9
:1012A0000AB00103E2013FC00122E20100B00100E7
:1012B000C0010AB0010000000000000000000000B2
:1012C000000000000000FFFF0F00000400620800A3
:1012D00008080003000C01030B5A0203060903036C
:1012E000171004030023050300170603096307030F
:1012F000090C08030C10090332221000160011001B
:10130000010112000000130001000001300301017F
:1013100037020301000D800200610201B0C1FFFF2E
:10132000320001000001020000010300301009003A
:1013300001000C000000900000800F00000010026F
:1013400000001102EF001202000013028F010005DD
:1013500000000105000002055F0001040100040413
:101360000000FFFF320007000001FFFF3200000213
:10137000000001020000000000000000000000006A
:10138000000000000100A4000100FFFF0A0060004F
:101390000027080008083000140231001537320019
:1013A00004063300160E34001122350000153600F5
:1013B0000785370007143800031439002000900017
:1013C00015001000100411003702290046002A0001
:1013D0004600070000001200890113000011FFFF02
:1013E00096001200B9010100000102000002030092
:1013F0003010090001000A0000000D0000000E007E
:101400003000610001006A000000800000008100DF
:10141000000082005F009200000193000107FFFFBF
:10142000500007000001E500F07801000001020013
:101430000002030030100400000005000000080056
:101440000702090000000A0000000C0000000D0067
:1014500000000F0000001000000011000700120043
:1014600000001300000007000100FFFFC80010008B
:10147000901611002702FFFF320012000D00FFFF3F
:1014800032001300001229000A002B000D00FFFF9C
:101490003200200000002100000030000000310078
:1014A0000404320003003500050436000808370044
:1014B000070438000303390007073C0004053D001A
:1014C000080860000027610001006A000000800039
:1014D0000000810000008200000083000000840002
:1014E000000085000000900010009200000007003E
:1014F0003301E5000080000001000100000102004E
:101500000007030030100400000008000202090078
:1015100000000A0000000C0000000D0000000F0099
:10152000000010000000110007001200000013006E
:101530000000FFFF32001000B01711000700FFFF8E
:101540000A0012003A01FFFF0A001300001A2900E6
:101550000C00FFFF0A0030000000310005053200DA
:101560000400350006003600070737000501380083
:101570000200390007073C0004073D00070860002F
:1015800000A7610001006A000000210000002000A7
:101590000000800000008100000082000000830045
:1015A0000000840000008500000090001000920000
:1015B00000009300030095001001970000009800C0
:1015C000000007007301FFFF3200FF000100F3007D
:1015D00008000000010001000001020000070300F4
:1015E0003010080002030900000010000000110084
:1015F00007001200000013000000FFFF320010007F
:10160000B014FFFF0A0011000700FFFF0A001200DC
:101610008E001300000C29001500FFFF0A003000A7
:1016200000003100070132000000350003023600DF
:1016300002043700000038000702390000003C00B7
:1016400003023D000304600000A761000100900058
:10165000290007003301FFFF3200150030009A0017
:1016600010001100200010002834120002001300A6
:101670003810FFFF280012001200FFFF28001000A2
:10168000203413004530FFFF4600300000003100D9
:101690000204320007033300040334000400350061
:1016A000010436000707370005033800100639002B
:1016B00010060100000102000003030030100800C2
:1016C00008080A000800600000276100010090007F
:1016D0003E019200000193000001A0000030A30031
:1016E0001000070001000700210007002300070089
:1016F00033000700330111001A00120021311300DA
:101700006C001400494210000008FFFF0A0011009D
:101710001A01FFFF0A0011001A03FFFF0A0011005F
:101720001A07FFFF0A0011001A0FFFFF0A0011003D
:101730003A0FFFFF1E000100280102000001030014
:10174000301007001210080003030B0000110C00FA
:1017500000000F0001181500200050000101510089
:10176000030652000804530000005400050655000B
:1017700006045600030357000303580010005900E5
:10178000001007001200FFFF2800070013000700E9
:1017900017005F04C601207E16C60B2D09207E1699
:1017A000000000000500010000020D0602F4040024
:1017B00005040601F407000A0C0A00F516000910DA
:1017C0000A01F32800100D1001F442000B0D0C016A
:1017D000F4540002040401F4550004110601F45EFF
:1017E0000004110601F4670005050701F46B00060B
:1017F000080B03F9710002040502007200040106DF
:1018000001FC730002010501007400050D0500F4E0
:101810007D00080D0A01F48A00040D0A03F491000A
:10182000090D0A01F4A000080D0A01F4AD00070D2E
:101830000A02F4B900090D0A01F4C800090D0A01F1
:10184000F4D700080D0A00F4E400090D0A01F4F3CE
:1018500000080D0A01F40001020A0501F703010363
:101860000C0501F8080109090B01F8130109040B23
:1018700001FB180109090B01F82301090D0A01F404
:10188000320111101201F454010C0D0C00F4680126
:101890000B0D0C01F47A010B0D0D01F48C010B0DF5
:1018A0000D01F49E01090D0B01F4AD01080D0B01B2
:1018B000F4BA010C0D0E01F4CE010B0D0D01F4E094
:1018C00001020D0502F4E401070D0A01F4F0010B19
:1018D0000D0C01F40202080D0A01F40F020D0D0FA8
:1018E00001F425020B0D0D01F437020D0D0E01F46C
:1018F0004D020A0D0C01F45E020D0E0E01F475028C
:101900000C0D0D01F489020A0D0C01F49A02090D67
:101910000B01F4A9020B0D0D01F4BB020B0D0C0021
:10192000F4CD02110D1100F4E9020C0D0C00F4FDD0
:10193000020C0D0C00F411030A0D0B01F422030339
:10194000110501F42903050D0500F4320303110507
:1019500000F4390307070801F440030A010A0003F1
:10196000420304030500F44403090A0A01F7500383
:10197000090D0A01F45F03080A0901F76903080D5C
:101980000A01F47603080A0A01F78003040D050131
:10199000F48703080E0A01F79503080D0A01F4A263
:1019A00003020D0401F4A60304110400F4AF0309BB
:1019B0000D0901F4BE03020D0401F4C2030D0A0F68
:1019C00001F7D303080A0A01F7DD03080A0A01F741
:1019D000E703090D0A01F7F603080D0A01F70304EE
:1019E000050A0601F70A04080A0901F71404040CA1
:1019F0000501F51A04080A0A01F72404090A090076
:101A0000F730040D0A0D00F74104080A0900F74BEE
:101A100004090E0900F75B04070A0901F7640404CE
:101A2000110601F46D0402110402F472040411069B
:101A300001F47B0407030901F9FFFFF8C0DEF7207A
:101A400009864191FF1304C320C8FF898261901069
:101A50001F14DA3D1E8340781708F47A3533F040BE
:101A6000203810EC20C620C640C6406C80390001EA
:101A70003C0277026304630477083C0E0660CC19CD
:101A800081E0180F0336C2D8730631E3C4FE132673
:101A90006CCCCCC46623108C4663333332664C80E6
:101AA000257EA50030C33F30C30CD6F0C0084421CA
:101AB0001084421108003C6642C3C3C3C3C3C3C3FE
:101AC00042663C113F33333333303E31B078301807
:101AD0001C1C1C1818100807F83C66C3C303061C1E
:101AE0000703C3C3663C0C187162C9A346FE1830D5
:101AF00060C07F2010080807F38C030180F06C633E
:101B0000E01E3198780C06F38D83C1E0D06C63E061
:101B1000FF030206040C081818181030303E31B0CC
:101B2000783C1B18F8C6C1E0F06C63E03C66C2C3A9
:101B3000C3C3673B0303C2663CC00030C0000064FF
:101B4000A00081C78E0C0780700E0180FF80001FEF
:101B5000F000700E01C0183871C080003E31B078BE
:101B60003018183818180C0000018003F0060E0613
:101B7000018600661DBB31CF18C79863CC31E611D2
:101B8000B399CCF7860001800070400FE00600F0AA
:101B90000F009019819810830C3FC204606606C044
:101BA00030FF183303606C0D833FC606C0780F0109
:101BB000E06FF81F861981A03C0180300600C068E4
:101BC0000D831861F0FF183303603C0780F01E039B
:101BD000C0780F0360CFF0FFE030180C0603FD80E3
:101BE000C06030180FF8FFC0C0C0C0C0FEC0C0C089
:101BF000C0C0C00F830E606603C00C00C1FC03C0F0
:101C0000360360730F0F10C0780F01E03C0780FFB0
:101C1000FE03C0780F01E03C06FFFFFFC0060C1872
:101C20003060C183078F1E2780C0D8330C630CC17E
:101C3000B83F0730C3186306606C0CC0C0C0C0C09A
:101C4000C0C0C0C0C0C0C0FFE03F01FC1FE0FD0538
:101C5000EC6F637913CD9E6CF1478E3C7180E07C14
:101C60000FC1E83D8798F11E33C3786F07E07C0E03
:101C70000F8183180CC06C01E00F007803C01B01BA
:101C8000980C60C0F800FF306C0F03C0F06FF300D9
:101C9000C0300C0300C0000F8183180CC06C01E041
:101CA0000F007803C01B01986C60C0FB0008FF8C1C
:101CB0000EC06C06C06C0CFF8C0EC06C06C06C06AF
:101CC000C0703F186C0F03C01E01F00E00F03C0DF9
:101CD000863F00FF86030180C06030180C060301B8
:101CE00080C0C0780F01E03C0780F01E03C0780F71
:101CF00001B061F0C06C0D8110630C610460CC19FF
:101D000001603C070060C18130E19870CC286626F4
:101D1000211330C8986C4C14340A1A070703038047
:101D2000818060630C30C1980F00E00600F019015B
:101D30009830C60E6060C0360630C30C1981D80FCB
:101D400000600600600600600600FFC060300C0600
:101D50000301C0603018060300FFC0FB6DB6DB6DE9
:101D6000B6E0841084108410841080EDB6DB6DB66C
:101D7000DBE03060A244D8A180FFC0C6307E71B0E5
:101D8000C060F3DB0D86C73DC0C060301BCE360F90
:101D90000783C1E0F07C6DE03C66C3C0C0C0C0C337
:101DA000663C0303033B67C3C3C3C3C3C3673B3C76
:101DB00066C3C3FFC0C0C3663C366F6666666660B6
:101DC0003B67C3C3C3C3C3C3673B0303C67CC0C075
:101DD000C0DEE3C3C3C3C3C3C3C3C3C3FFFFC030B9
:101DE00003333333333333E0C06030184C46636120
:101DF000F0EC6231986C30FFFFFFC0DEF71CF0C7DB
:101E0000863C31E18F0C7863C31E18C0DEE3C3C388
:101E1000C3C3C3C3C3C33C66C3C3C3C3C3C3663C5A
:101E2000DE71B0783C1E0F0783E36F30180C003B67
:101E300067C3C3C3C3C3C3673B030303DF318C63FF
:101E400018C6003EE3C0C0E03C07C3E37E66F6660A
:101E5000666667C3C3C3C3C3C3C3C3C77BC1A098FC
:101E6000CC4221B0D0281C0C00C61E3891C4CA66D2
:101E7000D316D0A6871C38C0C6004362361C181C77
:101E80003C266243C12198CC4261B0D0381C0C067C
:101E900003010300FE0C30C1861820C1FC366666C3
:101EA0006ECE66666630FFFFFFFFC0C666666737A8
:101EB000666666C0612438391AA017207E160000B5
:101EC0000000003E5B4F5B3E3E6B4F6B3E1C3E7C1A
:101ED0003E1C183C7E3C181C577D571C1C5E7F5EC8
:101EE0001C00183C1800FFE7C3E7FF001824180087
:101EF000FFE7DBE7FF30483A060E2629792926401E
:101F00007F050507407F05253F5A3CE73C5A7F3E49
:101F10001C1C08081C1C3E7F14227F22145F5F00DB
:101F20005F5F06097F017F006689956A6060606077
:101F30006094A2FFA29408047E040810207E201062
:101F400008082A1C08081C2A08081E101010100C6B
:101F50001E0C1E0C30383E3830060E3E0E060000B9
:101F600000000000005F00000007000700147F145D
:101F70007F14242A7F2A12231308646236495620CC
:101F8000500008070300001C2241000041221C00F1
:101F90002A1C7F1C2A08083E0808008070300008B0
:101FA00008080808000060600020100804023E5184
:101FB00049453E00427F4000724949494621414916
:101FC0004D331814127F1027454545393C4A49497D
:101FD0003141211109073649494936464949291EE7
:101FE00000001400000040340000000814224114D6
:101FF00014141414004122140802015909063E4128
:102000005D594E7C1211127C7F494949363E41414F
:1020100041227F4141413E7F494949417F090909A8
:10202000013E414151737F0808087F00417F410014
:102030002040413F017F081422417F404040407FC3
:10204000021C027F7F0408107F3E4141413E7F0910
:102050000909063E4151215E7F0919294626494951
:10206000493203017F01033F4040403F1F20402091
:102070001F3F4038403F631408146303047804038F
:102080006159494D43007F4141410204081020003D
:102090004141417F040201020440404040400003AE
:1020A00007080020545478407F284444383844447A
:1020B0004428384444287F385454541800087E0972
:1020C0000218A4A49C787F0804047800447D400092
:1020D0002040403D007F1028440000417F40007CAC
:1020E000047804787C080404783844444438FC18A4
:1020F00024241818242418FC7C0804040848545488
:10210000542404043F44243C4040207C1C204020B4
:102110001C3C4030403C44281028444C9090907C1B
:102120004464544C4400083641000000770000002D
:102130004136080002010204023C2623263C1EA16F
:10214000A161123A4040207A3854545559215555CE
:10215000794122545478422155547840205455797D
:10216000400C1E5272123955555559395454545910
:1021700039555454580000457C410002457D4200C9
:1021800001457C407D1211127DF0282528F07C54F9
:102190005545002054547C547C0A097F49324949F2
:1021A00049323A4444443A324A4848303A4141215B
:1021B0007A3A42402078009DA0A07D3D4242423DB7
:1021C0003D4040403D3C24FF2424487E4943662B4B
:1021D0002FFC2F2BFF0929F620C0887E09032054ED
:1021E0005479410000447D413048484A32384040EB
:1021F000227A007A0A0A727D0D19317D2629292F4B
:1022000028262929292630484D4020380808080862
:1022100008080808382F10C8ACBA2F102834FA0064
:10222000007B000008142A142222142A14085500E6
:10223000550055AA55AA55AAFF55FF55FF000000A5
:10224000FF00101010FF00141414FF001010FF0006
:10225000FF1010F010F0141414FC001414F700FF19
:102260000000FF00FF1414F404FC141417101F10D6
:10227000101F101F1414141F00101010F000000085
:10228000001F101010101F10101010F01000000090
:10229000FF101010101010101010FF10000000FFA1
:1022A000140000FF00FF00001F10170000FC04F4E2
:1022B00014141710171414F404F40000FF00F7149A
:1022C000141414141414F700F71414141714101021
:1022D0001F101F141414F4141010F010F000001F3D
:1022E000101F0000001F14000000FC140000F0107C
:1022F000F01010FF10FF141414FF141010101F0022
:10230000000000F010FFFFFFFFFFF0F0F0F0F0FF23
:10231000FFFF0000000000FFFF0F0F0F0F0F3844FA
:10232000443844FC4A4A4A347E02020606027E02CF
:102330007E0263554941633844443C04407E201E7C
:102340002006027E020299A5E7A5991C2A492A1CAB
:102350004C7201724C304A4D4D303048784830BC98
:10236000625A463D3E494949007E0101017E2A2AC2
:102370002A2A2A44445F444440514A444040444A43
:1023800051400000FF0103E080FF000008086B6B74
:10239000083612362436060F090F060000181800FA
:1023A00000001010003040FF0101001F01011E005D
:1023B000191D1712003C3C3C3C00000000007C3C16
:1023C0003E5E2B3D3F2F5B5D3B2C2A225C000102D1
:1023D0001020200808102040102040800201020137
:1023E00008040201010204081020408080402010EF
:1023F0000804020180040201804020100804020148
:1024000008040201010204081020408001020408AF
:102410001020408000002200250028002B002E0004
:102420003100340002010000050108010B0105051F
:102430000505070508080808020202020A0A08083A
:102440000404040401010101010101010303030368
:1024500003030303040707070C0C0C0C0C0C0C0CF7
:102460000202020206060606060606060B0B0B0B08
:102470000B0B0B0B00002100240027002A002D006D
:102480003000330001010000040107010A010000CF
:10249000090A02080B0C0D070603040100000000E6
:1024A000000000000000000000000000000000002C
:1024B0000000000000000000000011100F000000EC
:1024C000000000000000000000000000000000000C
:1024D000000000001C52AE5311241FBECFEFD1E20A
:1024E000DEBFCDBF00E00CBF13E0A0E0B2E0EAE346
:1024F000F1EB00E00BBF02C007900D92A639B107C7
:10250000D9F729E0A6E9B3E001C01D92A330B207D4
:10251000E1F712E1CBE6D2E100E006C02197010924
:10252000802FFE010E948358CA36D10780E0080739
:10253000A9F70E94E7410C94C0530C9400002F921D
:102540003F924F925F926F927F928F929F92AF9243
:10255000BF92CF92DF92EF92FF920F931F93CF9390
:10256000DF93CDB7DEB72E970FB6F894DEBF0FBE60
:10257000CDBF60E173E0CE0101960E94F83FBE013D
:102580006F5F7F4F85E498E00E94263360E070E043
:1025900080E698E00E94193B10927308109272082E
:1025A000109271081092700882E997E10E94033539
:1025B000E12CF12C00E410E028E630E046EF50E09A
:1025C00062E170E080E698E00E94B41CEE24EA9498
:1025D000FE2C00E411E022E030E044E150E062E053
:1025E00070E080E698E00E94162B2DE530E044E193
:1025F00050E06DE570E080E698E00E94162B2EEB2F
:1026000030E044E150E06EEB70E080E698E00E943C
:10261000162B2DE131E044E150E06DE171E080E600
:1026200098E00E94162B2CE731E044E150E06CE783
:1026300071E080E698E00E94162B2BED31E044E13A
:1026400050E06BED71E080E698E00E94162B03E706
:1026500010E020EE31E043E750E060E070E080E61B
:1026600098E00E94162B0FEA10E020EE31E04FEACE
:1026700050E060E070E080E698E00E94162B00EFEA
:1026800010E020EE31E040EF50E060E070E080E6E6
:1026900098E00E94162B08E111E020EE31E048E1BD
:1026A00051E069E670E080E698E00E94162B30EE7B
:1026B000E32E37E0F32E06E410E025E530E045EFA9
:1026C00050E065E070E080E698E00E94B41CEE24E3
:1026D000EA94FE2C02E310E020EE31E045E050E009
:1026E00060E070E080E698E00E94B41C0AE010E030
:1026F00010936D0800936C0882E291E090936F084C
:1027000080936E0861ED72E080E698E00E94BD3231
:1027100010936D0800936C0853E2452E512C509293
:102720006F0840926E086AE173E080E698E00E94CC
:10273000BD3202E310E025E530E04CE350E065E017
:1027400070E080E698E00E94B41C25E530E048E7A0
:1027500050E065E070E080E698E00E94B41C07E37A
:1027600010E025E530E044EB50E065E070E080E605
:1027700098E00E94B41C02E310E025E530E04CE351
:1027800050E064E670E080E698E00E94B41C25E525
:1027900030E048E750E064E670E080E698E00E94B0
:1027A000B41C07E310E025E530E044EB50E064E6BC
:1027B00070E080E698E00E94B41C00E210E025E59D
:1027C00030E045EF50E064E670E080E698E00E947B
:1027D000B41C25E530E04DE151E064E670E080E6B0
:1027E00098E00E94B41C02E310E025E530E04CE3E1
:1027F00050E063EC70E080E698E00E94B41C25E5B0
:1028000030E048E750E063EC70E080E698E00E943A
:10281000B41C07E310E025E530E044EB50E063EC46
:1028200070E080E698E00E94B41C00E210E025E52C
:1028300030E045EF50E063EC70E080E698E00E9405
:10284000B41C25E530E04DE151E063EC70E080E63A
:1028500098E00E94B41C02E310E025E530E04CE370
:1028600050E062E271E080E698E00E94B41C25E549
:1028700030E048E750E062E271E080E698E00E94D4
:10288000B41C07E310E025E530E044EB50E062E2E1
:1028900071E080E698E00E94B41C00E210E025E5BB
:1028A00030E045EF50E062E271E080E698E00E949F
:1028B000B41C25E530E04DE151E062E271E080E6D4
:1028C00098E00E94B41C02E310E025E530E04CE300
:1028D00050E061E871E080E698E00E94B41C25E5D4
:1028E00030E048E750E061E871E080E698E00E945F
:1028F000B41C07E310E025E530E044EB50E061E86C
:1029000071E080E698E00E94B41C00E210E025E54A
:1029100030E045EF50E061E871E080E698E00E9429
:10292000B41CE12C68EFF62E25E530E04DE151E0D6
:1029300061E871E080E698E00E94B41C78E2E72E3E
:10294000F12CF0926D08E0926C080FE510E0109306
:102950006F0800936E0867EB72E080E698E00E94D3
:10296000BD32F0926D08E0926C08E6E98E2E912C53
:1029700090926F0880926E0863EC72E080E698E0B7
:102980000E94BD32F0926D08E0926C08F7EDAF2E18
:10299000B12CB0926F08A0926E0861EC72E080E6F4
:1029A00098E00E94BD32A7E8EA2EF12CF0926D0863
:1029B000E0926C0810936F0800936E086BE872E069
:1029C00080E698E00E94BD32F0926D08E0926C08BB
:1029D00090926F0880926E0869EB72E080E698E052
:1029E0000E94BD32F0926D08E0926C08B0926F08C0
:1029F000A0926E0865EC72E080E698E00E94BD321D
:102A0000F0926D08E0926C08BEE06B2E7724739410
:102A100070926F0860926E086BE273E080E698E057
:102A20000E94BD328CE890E090936D0880936C0812
:102A300086E391E090936F0880936E086DE273E0F7
:102A400080E698E00E94BD3286EEC82ED12CD0924E
:102A50006D08C0926C0810936F0800936E0865EBC8
:102A600072E080E698E00E94BD32D0926D08C0927C
:102A70006C0890926F0880926E086DEB72E080E6B1
:102A800098E00E94BD32D0926D08C0926C08B0925E
:102A90006F08A0926E086BEB72E080E698E00E94EF
:102AA000BD32D0926D08C0926C0881E391E09093A2
:102AB0006F0880936E086FE273E080E698E00E94F2
:102AC000BD3290E4E92EFF24F394F0926D08E09279
:102AD0006C0890926F0880926E0861E373E080E664
:102AE00098E00E94BD32F0926D08E0926C08B092BE
:102AF0006F08A0926E086FEB72E080E698E00E948B
:102B0000BD32F0926D08E0926C0870926F0860928E
:102B10006E0863E373E080E698E00E94BD32F092B5
:102B20006D08E0926C0889E391E090936F088093C0
:102B30006E0865E373E080E698E00E94BD3287EBA3
:102B40009EE10E940335D0926D08C0926C0870928D
:102B50006F0860926E0867E373E080E698E00E9479
:102B6000BD3220E9C22EDD24D394D0926D08C092EC
:102B70006C0810936F0800936E0869E373E080E6B9
:102B800098E00E94BD32D0926D08C0926C0890927D
:102B90006F0880926E086DE373E080E698E00E9413
:102BA000BD32D0926D08C0926C08B0926F08A092AE
:102BB0006E0861E473E080E698E00E94BD32D09236
:102BC0006D08C0926C0870926F0860926E0865E4A0
:102BD00073E080E698E00E94BD32D0926D08C0920A
:102BE0006C088BE391E090936F0880936E086AEC19
:102BF00072E080E698E00E94BD32F0926D08E092AB
:102C00006C0810936F0800936E0889E997E10E94A1
:102C1000033563E872E080E698E00E94BD3284E606
:102C200090E090936D0880936C0850926F084092EA
:102C30006E0882E997E10E94033534E6C32ED12C59
:102C400021E42E8743E2A42EB12C53E1252E52E03D
:102C5000352E8D809E8082E997E10E940335109287
:102C600073081092720810927108109270080E94F6
:102C70002335288739874A875B876C877D8761E0A2
:102C800089E30E94AF4061E088E30E94AF408C85F9
:102C90009D850B978D3D934008F011C4288539859B
:102CA000C901330FAA0BBB0B9C01AD012E58334059
:102CB00041095109A0916A08B0916B080E94ED5337
:102CC00020EE3CEF4FEF5FEF0E94C35329013A0122
:102CD0002A853B85C901330FAA0BBB0B9C01AD01B3
:102CE0002456310941095109A0916808B091690839
:102CF0000E94ED532CE533E040E050E00E94C353C6
:102D0000C901885791408336910538F4C201865F26
:102D100091098534910508F4CFC3C90187589140C2
:102D20008435910508F071C0C201CD97C19708F5AF
:102D300067EB72E080E698E00E94BD3268EE73E0D7
:102D400080E090E00E94EB4084E1C80ED11CD0925C
:102D50006D08C0926C08B0926F08A0926E0867EB85
:102D600072E0CE0101960E94593680E090E020E3A7
:102D700048C3C20189579109C19708F563EC72E015
:102D800080E698E00E94BD3268EE73E080E090E05B
:102D90000E94EB4084E1C80ED11CD0926D08C09215
:102DA0006C08B0926F08A0926E0863EC72E0CE01DE
:102DB00001960E94593680E090E023E322C3C201CD
:102DC000855B9109C69708F561EC72E080E698E0B2
:102DD0000E94BD3268EE73E080E090E00E94EB401C
:102DE00084E1C80ED11CD0926D08C0926C08B092DC
:102DF0006F08A0926E0861EC72E0CE0101960E940D
:102E0000593680E090E026E3FCC2C9018852914027
:102E10008E35910508F0BDC0C201CD97C19708F568
:102E20006BE872E080E698E00E94BD3268EE73E0E5
:102E300080E090E00E94EB4084E1C80ED11CD0926B
:102E40006D08C0926C08B0926F08A0926E086BE893
:102E500072E0CE0101960E94593680E090E021E3B5
:102E6000D0C2C20189579109C19708F569EB72E098
:102E700080E698E00E94BD3268EE73E080E090E06A
:102E80000E94EB4084E1C80ED11CD0926D08C09224
:102E90006C08B0926F08A0926E0869EB72E0CE01E8
:102EA00001960E94593680E090E024E3AAC2C20154
:102EB000855B9109C69708F565EC72E080E698E0BD
:102EC0000E94BD3268EE73E080E090E00E94EB402B
:102ED00084E1C80ED11CD0926D08C0926C08B092EB
:102EE0006F08A0926E0865EC72E0CE0101960E9418
:102EF000593680E090E027E384C2C201865F9109E1
:102F00004F9708F56BE273E080E698E00E94BD32CF
:102F100068EE73E080E090E00E94EB4081E1C80E33
:102F2000D11CD0926D08C0926C08B0926F08A0922C
:102F30006E086BE273E0CE0101960E94593680E084
:102F400090E028E25EC2C2018E5191404F9708F591
:102F50006DE273E080E698E00E94BD3268EE73E0B7
:102F600080E090E00E94EB4081E1C80ED11CD0923D
:102F70006D08C0926C08B0926F08A0926E086DE266
:102F800073E0CE0101960E94593680E090E02FE276
:102F900038C2C901895C91098435910508F0BDC02A
:102FA000C201CD97C19708F565EB72E080E698E025
:102FB0000E94BD3268EE73E080E090E00E94EB403A
:102FC00084E1C80ED11CD0926D08C0926C08B092FA
:102FD0006F08A0926E0865EB72E0CE0101960E9428
:102FE000593680E090E022E30CC2C2018957910972
:102FF000C19708F56DEB72E080E698E00E94BD3263
:1030000068EE73E080E090E00E94EB4084E1C80E3F
:10301000D11CD0926D08C0926C08B0926F08A0923B
:103020006E086DEB72E0CE0101960E94593680E089
:1030300090E025E3E6C1C201855B9109C69708F5DA
:103040006BEB72E080E698E00E94BD3268EE73E0C0
:1030500080E090E00E94EB4084E1C80ED11CD09249
:103060006D08C0926C08B0926F08A0926E086BEB6E
:1030700072E0CE0101960E94593680E090E028E38C
:10308000C0C1C201865F91094F9708F567E373E0FD
:1030900080E698E00E94BD3268EE73E080E090E048
:1030A0000E94EB4082E1C80ED11CD0926D08C09204
:1030B0006C08B0926F08A0926E0867E373E0CE01CF
:1030C00001960E94593680E090E02BE29AC1C2013D
:1030D0008E5191404F9708F56FE273E080E698E0DB
:1030E0000E94BD3268EE73E080E090E00E94EB4009
:1030F00084E1C80ED11CD0926D08C0926C08B092C9
:103100006F08A0926E086FE273E0CE0101960E94F4
:10311000593680E090E02DE274C1C9018A569109C8
:103120008435910508F0C1C0C201CD97C19728F53B
:1031300089E997E10E94033563E872E080E698E050
:103140000E94BD3268EE73E080E090E00E94EB40A8
:1031500084E1C80ED11CD0926D08C0926C08B09268
:103160006F08A0926E0863E872E0CE0101960E949B
:10317000593680E090E028E744C1C201895791099F
:10318000C19708F561E373E080E698E00E94BD32E4
:1031900068EE73E080E090E00E94EB4081E1C80EB1
:1031A000D11CD0926D08C0926C08B0926F08A092AA
:1031B0006E0861E373E0CE0101960E94593680E00B
:1031C00090E02EE51EC1C201855B9109C69708F506
:1031D0006FEB72E080E698E00E94BD3268EE73E02B
:1031E00080E090E00E94EB4084E1C80ED11CD092B8
:1031F0006D08C0926C08B0926F08A0926E086FEBD9
:1032000072E0CE0101960E94593680E090E029E3F9
:10321000F8C0C201865F91094F9708F563E373E038
:1032200080E698E00E94BD3268EE73E080E090E0B6
:103230000E94EB4081E1C80ED11CD0926D08C09273
:103240006C08B0926F08A0926E0863E373E0CE0141
:1032500001960E94593680E090E029E2D2C0C20176
:103260008E5191404F9708F565E373E080E698E052
:103270000E94BD3268EE73E080E090E00E94EB4077
:1032800081E1C80ED11CD0926D08C0926C08B0923A
:103290006F08A0926E0865E373E0CE0101960E946C
:1032A000593680E090E02AE2ACC02B503109243539
:1032B000310508F004C1C201CD97C19728F587EB0D
:1032C0009EE10E94033569E373E080E698E00E9486
:1032D000BD3268EE73E080E090E00E94EB4083E353
:1032E000C80ED11CD0926D08C0926C08B0926F08C5
:1032F000A0926E0869E373E0CE0101960E945936F0
:1033000080E090E023E57DC0C20189579109C19713
:1033100028F587EB9EE10E9403356DE373E080E6BC
:1033200098E00E94BD3268EE73E080E090E00E9479
:10333000EB4083E3C80ED11CD0926D08C0926C089C
:10334000B0926F08A0926E086DE373E0CE01019613
:103350000E94593680E090E023E453C0C201855BAF
:103360009109C69728F587EB9EE10E94033561E439
:1033700073E080E698E00E94BD3268EE73E080E082
:1033800090E00E94EB4083E3C80ED11CD0926D0800
:10339000C0926C08B0926F08A0926E0861E473E06E
:1033A000CE0101960E94593680E090E024E529C0C4
:1033B000C201865F91094F9730F587EB9EE10E942D
:1033C000033565E473E080E698E00E94BD3268EE64
:1033D00073E080E090E00E94EB4083E3C80ED11CD4
:1033E000D0926D08C0926C08B0926F08A0926E08DF
:1033F00065E473E0CE0101960E94593680E090E0CA
:1034000025E42E875EC072018EE1E81A81E0F80A99
:103410002FE1E216F10408F052C068EE73E080E09C
:1034200090E00E94EB408E858355823028F08E8597
:10343000853411F0833459F423E3C21AD108EE2401
:10344000EA94FE2C08E210E02BE330E025C083E193
:10345000C81AD10821E0821A91088D819E818816B0
:10346000990620F4E981FA81309729F410929A03A1
:10347000EAE9F3E002C0E80DF91D2082BE016F5FAA
:103480007F4F83E198E00E945F32EE24EA94FE2CA5
:1034900008E210E023E130E048E050E0B60180E6C9
:1034A00098E00E94B41CD0926D08C0926C08B09253
:1034B0006F08A0926E0803C081E090E002C080E037
:1034C00090E0019709F0C5CBBE016F5F7F4F85E4A7
:1034D00098E00E94263382E090E0909397038093D7
:1034E000960389819A810E94BE542E960FB6F89455
:1034F000DEBF0FBECDBFDF91CF911F910F91FF9027
:10350000EF90DF90CF90BF90AF909F908F907F9083
:103510006F905F904F903F902F9008958B988A986E
:1035200020910201277820930201A5982EB1277CD3
:103530002EB970910201292F3327F901E370FF277B
:10354000A5E0EE0FFF1FAA95E1F7E72BE09302013C
:103550007EB1F901EC70FF27EE0FFF1FEE0FFF1F8A
:10356000E72BEEB974B3F901E071FF27EE0FFF1FEF
:10357000E72BE4BB7EB1F901E072FF27F595E795F3
:10358000F595E795E72BEEB970910201207C332782
:10359000E3E035952795EA95E1F7272B2093020183
:1035A0008998899A20910201277820930201A59891
:1035B0002EB1277C2EB9709102019C012370332714
:1035C000F5E0220F331FFA95E1F7272B2093020134
:1035D0007EB19C012C703327220F331F220F331F23
:1035E000272B2EB974B39C0120713327220F331F70
:1035F000272B24BB7EB19C0120723327359527955C
:1036000035952795272B2EB9709102019C01207CBE
:103610003327F3E035952795FA95E1F7272B20938B
:1036200002018998899A8A9AFA01A0919C037FEFF6
:10363000760F16160CF0C7C0219130910201377831
:1036400030930201A5983EB1377C3EB960910201EA
:10365000322F3370B0E23B9FA0011124462B4093E0
:1036600002016EB1322F3C70B4E03B9FA0011124E7
:10367000462B4EB944B3322F3071330F342B34BB49
:103680006EB1322F3072432F50E0559547955595C6
:103690004795462B4EB930910201207C2695269500
:1036A0002695232B209302018998899A711102C0D3
:1036B000672FBDCFAA23E1F301968A9820910201DA
:1036C000277820930201A5982EB1277C2EB960910E
:1036D0000201292F3327A90143705527B5E0440F74
:1036E000551FBA95E1F7462B409302016EB1A9012F
:1036F0004C705527440F551F440F551F462B4EB98C
:1037000064B3A90140715527440F551F462B44BB94
:103710006EB1A90140725527559547955595479526
:10372000462B4EB940910201207C332753E035955A
:1037300027955A95E1F7242B209302018998899ABD
:1037400020910201277820930201A5982EB1277CB1
:103750002EB9409102019C012370332765E0220FAE
:10376000331F6A95E1F7242B209302014EB19C018F
:103770002C703327220F331F220F331F242B2EB917
:1037800044B39C0120713327220F331F242B24BB09
:103790004EB19C0120723327359527953595279595
:1037A000242B2EB9409102019C01207C3327B3E0E9
:1037B00035952795BA95E1F7242B20930201899836
:1037C000899A8A9A75CF8B9A08958F929F92AF9219
:1037D000BF92CF92DF92EF92FF920F931F93CF93FE
:1037E000DF9300D01F92CDB7DEB77C015B016A0189
:1037F0004901FC01868D978D8732F3E99F0799F483
:10380000F7018589823031F4F0E2CF0ED11C005EE1
:103810001F4F1EC08330E1F420E2A20EB11C80E2F3
:10382000880E911C15C08632954191F4F701858967
:1038300080FF0EC0C801841B950B19F40F5F1F4F4A
:1038400007C06217730721F44B01880E991E8A0185
:10385000F701848D80FF3BC084A5B982AA829B8238
:103860008C82AE014F5F5F4F64E090E00E948E1A41
:10387000F70180A9D982CA821B830C83AE014F5FF6
:103880005F4F64E090E00E948E1A80919C03882331
:1038900009F459C0F701868D978D8536910509F099
:1038A00052C0B982AA82AE014F5F5F4F62E086A12B
:1038B00097A10E948E1AD982CA82AE014F5F5F4FD4
:1038C00062E0F70180A591A50E948E1A3CC0B50167
:1038D000F70186A197A10E94E92EB601F70180A504
:1038E00091A50E94E92E8A149B0419F40C151D055C
:1038F00051F1F701848D85FF0EC0858980FF06C0D8
:10390000102F0027C02AD12A860105C0982C8824B0
:10391000A828B9284501B501F70184A595A50E94FD
:10392000E92EB601F70180A991A90E94E92EB40100
:10393000F70186A597A50E94E92EB801F70182A993
:1039400093A90E94E92E0F900F900F900F90DF9196
:10395000CF911F910F91FF90EF90DF90CF90BF908C
:10396000AF909F908F900895AF92BF92CF92DF92C9
:10397000EF92FF920F931F93CF93DF93EC0180910F
:103980009B03882349F0C7018F719927880F991FDE
:10399000E1ECEE22E82AF92A37FF05C0620F731F17
:1039A000319521953109260F371F77FF02C060E05E
:1039B00070E0E885F9852E173F070CF4F9015F01E7
:1039C000A61AB70A17FF05C0400F511F11950195A0
:1039D0001109CA01800F911F57FF02C040E050E05B
:1039E0000A851B85801791070CF48C016801C41AA5
:1039F000D50A015011099F0121503109CE010E94C1
:103A0000E51B8B988A988AA59BA5209102012778AF
:103A100020930201A5982EB1277C2EB96091020156
:103A2000292F3327A9014370552705E0440F551F5F
:103A30000A95E1F7462B409302016EB1A9014C7043
:103A40005527440F551F440F551F462B4EB964B3DD
:103A5000A90140715527440F551F462B44BB6EB139
:103A6000A901407255275595479555954795462B81
:103A70004EB940910201207C3327A3E0359527956C
:103A8000AA95E1F7242B209302018998899A209125
:103A90000201277820930201A5982EB1277C2EB928
:103AA000409102019C0123703327B5E0220F331FA0
:103AB000BA95E1F7242B209302014EB19C012C70A2
:103AC0003327220F331F220F331F242B2EB944B369
:103AD0009C0120713327220F331F242B24BB4EB1AE
:103AE0009C01207233273595279535952795242BF2
:103AF0002EB920910201807C992763E095958795E6
:103B00006A95E1F7822B809302018998899A8A9AB3
:103B1000AC14BD042CF49A2D8B2D5601C92ED82E31
:103B20008F2D99279C01237033272295220F207E09
:103B3000AC014C705527342F330F330FAC0140715B
:103B40005527440FBC017695679576956795562F56
:103B5000587063E0969587956A95E1F78871B7018B
:103B600063707727962F9295990F907EB7016C70AE
:103B70007727660F660FF701E071FF277E2F770F1B
:103B8000D701B695A795B695A795A870F701B3E0AC
:103B9000F695E795BA95E1F71E2F18711C141D04D0
:103BA0000CF043C0F501B0910201B778B093020167
:103BB000A598BEB1B77CBEB9B0910201B22BB0934B
:103BC0000201BEB1B32BBEB9B4B3B42BB4BBBEB10A
:103BD000B52BBEB9B0910201B82BB0930201899800
:103BE000899AB0910201B778B0930201A598BEB14D
:103BF000B77CBEB9B0910201B92BB0930201BEB13E
:103C0000B62BBEB9B4B3B72BB4BBBEB1BA2BBEB9D9
:103C1000B0910201B12BB09302018998899A319732
:103C200011F6E1E0CE1AD108B9CF8B9A8C8D80FFC6
:103C300008C08E8D9F8D8632954191F48D8980FFCD
:103C40000FC00A851B85015011092885398521502F
:103C5000310940E050E060E070E0CE010E94E51BD9
:103C6000DF91CF911F910F91FF90EF90DF90CF9058
:103C7000BF90AF900895EF92FF920F931F93CF9351
:103C8000DF937C01E90177FDBEC057FDBCC0FC019C
:103C900080859185681779070CF0B5C0828593857A
:103CA000481759070CF0AFC080919B03882341F05F
:103CB000CE018F719927880F991FC17CC82BD92BF2
:103CC0008A019B01C7010E94E51B80919C03882308
:103CD00009F48DC08B988A98F70182A593A520914D
:103CE0000201277820930201A5982EB1277C2EB9D6
:103CF00060910201292F3327A9014370552775E0F0
:103D0000440F551F7A95E1F7462B409302016EB19F
:103D1000A9014C705527440F551F440F551F462BC2
:103D20004EB964B3A90140715527440F551F462B66
:103D300044BB6EB1A90140725527559547955595DD
:103D40004795462B4EB940910201207C3327B3E0C2
:103D500035952795BA95E1F7242B20930201899890
:103D6000899A20910201277820930201A5982EB10B
:103D7000277C2EB9409102019C012370332715E066
:103D8000220F331F1A95E1F7242B209302014EB125
:103D90009C012C703327220F331F220F331F242B3B
:103DA0002EB944B39C0120713327220F331F242BDB
:103DB00024BB4EB19C01207233273595279535954C
:103DC0002795242B2EB920910201807C992773E03E
:103DD000959587957A95E1F7822B809302018998D2
:103DE000899A8A9ACE010E94DC2F8B9A0CC0BE0160
:103DF000F70182A593A5DF91CF911F910F91FF90BD
:103E0000EF900C94E92EDF91CF911F910F91FF90CD
:103E1000EF900895DF92EF92FF920F931F93CF934D
:103E2000DF93CDB7DEB72A970FB6F894DEBF0FBE8B
:103E3000CDBF7C01862F8370D70155968C93559703
:103E4000462F417060FF05C016962D913C91179743
:103E500003C0F70124813581D70119963C932E9335
:103E60001897442329F014962D913C91159703C07F
:103E7000F70126813781D7011B963C932E931A9721
:103E8000823041F0833041F0813011F088E405C088
:103E900088E203C088E901C088EF8A87F701248D92
:103EA000358D30FF03C08A8580588A8731FF04C072
:103EB0009A8580E489278A8733FF04C09A8588E041
:103EC00089278A87D7015E968D919C915F9720FF05
:103ED000D5C010919C038431B8E69B07F9F49A850C
:103EE000892F881F8827881F8295880F880F807CDC
:103EF00096FD02C020E001C020E298729A871F82DE
:103F00008260822B88878BE38987AE01495F5F4F90
:103F100063E086EB90E00E948E1A89C08336E9E167
:103F20009E0741F08138F4E99F0721F0813125E1B6
:103F3000920709F52A8527FF02C021602A872A8572
:103F400026FF02C022602A87833639E1930719F4DD
:103F50008A858F730EC0813844E9940719F48A85E5
:103F60008F7207C08131954109F061C08A858F7ECB
:103F7000806C8A875CC0112309F459C062E070E04C
:103F8000F70177A366A326E030E031A720A7E2E29D
:103F9000F0E0D7019B96FC93EE939A979D967C93C5
:103FA0006E939C9764E070E09F967C936E939E97CF
:103FB000D1963C932E93D09728E030E0D3963C9353
:103FC0002E93D2978536910521F58A85982F916099
:103FD00084FD02C09A8703C083ED89278A87442322
:103FE00051F082E890E0F70197A386A380E890E083
:103FF00091A780A732C280E890E0D70197969C9362
:104000008E93969782E890E099969C938E939897DA
:1040100024C28235924501F58A85982F926084FDED
:1040200002C09A8719C084ED89278A8715C02AE2C1
:1040300030E0F70137A326A38BE290E091A780A799
:104040004CE250E053A742A735A724A737A726A7DD
:1040500091AB80AB93AB82AB1111FFC186E390E0D3
:10406000AE01465F5F4F61E00E948E1A8A8590E044
:10407000D70193969C938E939297E6C02A858339B5
:10408000B7E79B0709F448C050F48435F1E09F0777
:1040900081F0803234E5930709F081C03DC086325B
:1040A00043E99407C9F18930A5EB9A0709F077C075
:1040B00033C087E390E0F70195A784A786E390E0FB
:1040C00097A786A789E390E091AB80AB88E390E067
:1040D00093AB82AB80E290E097A386A381E290E06D
:1040E00091A780A782E290E093A782A7822F022E59
:1040F000000C990B8827990F881F9927982F8827DC
:10410000990F26FD03C060E070E002C060E071E03E
:104110008862682B792B82C040E052E0D7019796E5
:104120005C934E93969741E052E099965C934E9340
:10413000989742E052E09B965C934E939A9740E1A9
:1041400052E09D965C934E939C9741E152E09F967E
:104150005C934E939E9742E152E0D1965C934E93CE
:10416000D09743E152E0D3965C934E93D29727FDCC
:1041700003C020E030E002C020E030E88632B3E93E
:104180009B0731F08032944519F060E07AE602C076
:1041900060E075E3622B732B80E094E035C080E231
:1041A00090E0D70197969C938E93969781E290E04A
:1041B00099969C938E93989782E290E09B969C931D
:1041C0008E939A9780E590E09D969C938E939C9712
:1041D00081E590E09F969C938E939E9782E590E078
:1041E000D1969C938E93D09783E590E0D3969C9341
:1041F0008E93D29727FD03C060E070E002C060E0BC
:1042000070E8776280E690E00E94E92E8A8586FD5C
:1042100003C060E070E002C060E071E081E090E027
:104220000E94E92E8A8585FD03C060E070E002C02F
:1042300068E070E083FD70616063F70173A362A3BF
:1042400083E090E00E94E92ED70155968C91559716
:1042500080FF36C05C968D919C915D9792FD30C039
:1042600096968D919C91979798962D913C919997C0
:1042700097963C932E93969799969C938E939897A6
:104280009C968D919C919D97D0962D913C91D19724
:104290009D963C932E939C97D1969C938E93D0970A
:1042A0009E968D919C919F97D2962D913C91D397FC
:1042B0009F963C932E939E97D3969C938E93D297E2
:1042C000F7010285138501501109208531852150A0
:1042D000310940E050E060E070E0C7010E94E51B5A
:1042E000D70116966D917C9117975E968D919C9152
:1042F0005F978732B3E99B0741F4F7012589225084
:10430000223018F400E210E002C000E010E0873232
:10431000F3E99F0729F022273327201B310B04C024
:1043200020E230E0201B310BD7015C964C9140FF1E
:1043300045C01982D02E0A837B836C833D832E83F4
:1043400010919C03111103C083E390E002C08EE042
:1043500090E0AE014F5F5F4F66E00E948E1A1982B7
:10436000DA82111103C087E390E002C084E190E09B
:10437000AE014F5F5F4F62E00E948E1A112389F0F9
:104380001982F701868D978D8734934819F081E063
:1043900090E002C088E190E0AE014F5F5F4F61E0C6
:1043A0000AC0D7015C968C9180FF5AC040E050E073
:1043B00060E083E190E00E948E1A52C08339B7E733
:1043C0009B0779F160F48032F4E59F0751F183385F
:1043D00027E7920781F08435914089F510C0863235
:1043E00043E99407F1F08930A5EB9A07D1F08532C3
:1043F000924929F504C0F70160A171A124C0600FA2
:10440000711F6150710981E390E00E94E92EB801AB
:1044100082E390E00E94E92E60E070E083E390E0A8
:1044200019C0D70190966D917C919197626081E05F
:1044300094E00E94E92EB80184E094E00BC0F701FB
:1044400060A171A1626081E690E00E94E92EB8014E
:104450008AE690E00E94E92E03C086E190E000CE5B
:104460002A960FB6F894DEBF0FBECDBFDF91CF9175
:104470001F910F91FF90EF90DF900895F89498E0CE
:104480002F9887FF02C02D9A01C02D98880F2F9A70
:104490009150B1F700000000000000002F987894C0
:1044A0000895F8942D9A98E080E02F9A000000007B
:1044B000880F1E9981602F989150B9F778940895CC
:1044C0000F931F93CF93DF938B012FB7F8948091B5
:1044D0009D0390919E03A0919F03B091A0032FBFD5
:1044E000EC010E9451228F3F91F02FB7F8948091F8
:1044F0009D0390919E03A0919F03B091A0032FBFB5
:104500008C1B9D0B8017910760F380E001C081E058
:10451000DF91CF911F910F910895DC015996ED9194
:10452000FC915A973097B9F083899489A589B68907
:104530004285538564857585841B950BA60BB70B47
:10454000811520E89207A105B10538F08FEF9FE7AC
:10455000A0E0B0E0089580E090E00895CF93DF936D
:104560001F92CDB7DEB76983DC01ED91FC9102802B
:10457000F381E02D41E050E0BE016F5F7F4F199560
:104580000F90DF91CF91089561E0FC0184810C943C
:104590003540CF93DF93EC018E81882389F08F81A2
:1045A00098859C012F5F3F4F38872F838230924040
:1045B00018F40E945122F3CFCE010E94C4221E8221
:1045C000DF91CF9108958F929F92AF92BF92FF9209
:1045D0000F931F93CF93DF93EC01F62E49015A01FD
:1045E0000E94C92260E08C810E9435406CE271E03B
:1045F000CE010E9460228F2D80640E943E2208E13D
:1046000010E0D501C401002E04C0B695A79597957A
:1046100087950A94D2F70E943E2208501109083F5C
:104620008FEF180771F7FF2029F088E0F81204C017
:1046300087E803C085E901C08FEF0E943E2210E0A9
:104640000E9451228A8787FF04C01F3F11F01F5F1D
:10465000F7CFDF91CF911F910F91FF90BF90AF9057
:104660009F908F900895FC01848D958D292F229520
:104670002F7030E021703327A9014627BA0171A3BA
:1046800060A380FF0CC0672B19F480E290E002C0A9
:1046900081E290E040E050E060E00C948E1A868D5C
:1046A000978D833957E79507E1F040F4843541E071
:1046B000940779F080329445C1F413C0863223E91F
:1046C000920779F0893045EB940759F08532924989
:1046D00061F4660F771F660F771F636187E090E0D4
:1046E00006C0626081E094E002C081E690E00C9434
:1046F000E92EAF92BF92CF92DF92EF92FF920F938B
:104700001F93CF93DF93EC016901C801820F931FC0
:104710008130924008F083C08E81882379F08881AF
:104720009981AA81BB8184179507A607B70731F441
:104730008F819885C816D90608F048C048835983E8
:104740006A837B838B85833039F089E0440F551F62
:10475000661F771F8A95D1F79A01AB0161E1CE01FF
:104760000E94E322882319F083E08D8358C02FB77D
:10477000F89480919D0390919E03A0919F03B09126
:10478000A0032FBF5C010E9451228A878F3F91F4C2
:104790002FB7F89480919D0390919E03A0919F0361
:1047A000B091A0032FBF8A199B098D32914058F315
:1047B0008FE003C08E3F31F08DE08D83CE010E94EB
:1047C000C4222DC018861F8281E08E838F81988538
:1047D0008C159D0540F40E9451228F819885019689
:1047E00098878F83F3CF6701E00EF11EEC14FD0470
:1047F00031F00E945122F60181936F01F7CF8F8132
:104800009885080F191F18870F838985882319F049
:104810000115124048F0CE010E94C92205C0CE0108
:104820000E94C42280E001C081E0DF91CF911F91FE
:104830000F91FF90EF90DF90CF90BF90AF900895D1
:10484000CF92DF92EF92FF920F931F93CF93DF935C
:10485000EC017901411551056105710511F482E101
:1048600065C08B85833039F0E9E0440F551F661F22
:10487000771FEA95D1F79A01AB0168E1CE010E945A
:10488000E322882311F084E051C08C8597013E5FBC
:104890006901882321F1F70100E010E0819190E0A7
:1048A00081279C0144E0359527954A95E1F78227B9
:1048B0009327102F0027082719279C01322F222722
:1048C0003295307F0227132775E0880F991F7A955C
:1048D000E1F708271927CE16DF0601F702C00FEF10
:1048E0001FEF8EEF0E943E22F70181917F010E940F
:1048F0003E22CE14DF04C1F7812F0E943E22802F7A
:104900000E943E220E9451228A878F71853031F0A9
:1049100081E18D83CE010E94C42209C068E572E066
:10492000CE010E946022811107C085E18D83CE01F6
:104930000E94C42280E013C020E030E0A9016DE0B5
:10494000CE010E94E322811104C00E9451228823DB
:1049500011F084E1EBCFCE010E94C42281E0DF910F
:10496000CF911F910F91FF90EF90DF90CF9008951E
:10497000CF93DF93EC018D81882379F18C8187FFC0
:1049800028C06E857F858889998941E00E94CA3850
:10499000882319F1EA8980E2E89FF0011124E755A4
:1049A000FC4F3097D1F08D81823040F48B899C8907
:1049B000AD89BE89848F958FA68FB78F8F89988D8B
:1049C000A98DBA8D938F828FB58BA48B8C818F77B5
:1049D0008C83DF91CF910C94933880E0DF91CF915D
:1049E0000895FC01818D928D009711F00C94B824EC
:1049F00008958F929F92AF92BF92CF92DF92EF92E3
:104A0000FF920F931F93CF93DF93EC018D81811160
:104A100002C080E078C00B891C892D893E8904176B
:104A2000150726073707A8F36A017B01823029F4AE
:104A3000CA86DB86EC86FD860DC0C114D104E10474
:104A4000F10451F41E821F82188619861A861B866D
:104A50001C861D8681E057C08A849B84AC84BD84FB
:104A6000EB8DFC8D258530E0275F3F4FB501A4011C
:104A70004150510961097109022E04C0769567956C
:104A8000579547950A94D2F7D701C6010197A10916
:104A9000B10904C0B695A795979587952A95D2F741
:104AA00084179507A607B70720F089288A288B283E
:104AB00071F44F89588D698D7A8D4E835F83688735
:104AC00079874C015D018E010A5F1F4F16C0841B60
:104AD000950BA60BB70BF5CF4E815F816885798565
:104AE00098018B8D9C8D0E94963A91E0891A9108CD
:104AF000A108B108882309F48CCF81149104A10482
:104B0000B10451F795CFDF91CF911F910F91FF9095
:104B1000EF90DF90CF90BF90AF909F908F900895CF
:104B20002F923F924F925F926F927F928F929F92BD
:104B3000AF92BF92CF92DF92EF92FF920F931F93AB
:104B4000CF93DF9300D01F92CDB7DEB79C838B83CA
:104B50006B014A01DC0115968C91811103C08FEF26
:104B60009FEFFBC0EB81FC81848180FFF8CFAB819C
:104B7000BC8153960D911D912D913C9156971A969B
:104B80004D915D916D917C911D97C401A0E0B0E0C5
:104B900028013901441A550A660A770A4816590647
:104BA0006A067B0618F44801841A950A54018B8121
:104BB0009C8106969A8389832090A1033090A2035A
:104BC000A114B10409F496C0AB81BC811A964D9131
:104BD0005D916D917C911D972A01B1E05B22AB81C3
:104BE000BC811596EC9115975B968D919C915C9785
:104BF0008A019B01F9E03695279517950795FA9557
:104C0000D1F7E23061F4FC01828D938DA48DB58DD6
:104C1000BC01CD01600F711F821F931F4AC0DC01D0
:104C200014967C907A9470224114510401F571100D
:104C30001EC0452B462B472B59F4EB81FC818789FD
:104C4000908DA18DB28D86839783A087B1870FC089
:104C5000AB81BC8116964D915D916D917C911997B8
:104C600029813A810E94963A882309F478CFEB8112
:104C7000FC81238D348D86819781A085B185029733
:104C8000A109B109F901058404C0880F991FAA1F61
:104C9000BB1F0A94D2F74685578560897189840FB6
:104CA000951FA61FB71FBC01CD01670D711D811D8A
:104CB000911D20E032E02419350935012A153B0504
:104CC00008F43901AB81BC8114962C9126FD04C0F7
:104CD0006114B2E07B0681F4009106021091070294
:104CE000209108023091090260177107820793072B
:104CF000B1F402C0C40131C040E00E94CA38882328
:104D000009F42DCFF201E755FC4FD601CF01860DF6
:104D1000971D8E179F0771F021912D93FACF760181
:104D200083019201AB01BC01C1010E947923882358
:104D300009F415CFC60CD71CEB81FC8182859385C5
:104D4000A485B585860D971DA11DB11D828793870A
:104D5000A487B587A618B70833CF0F900F900F9090
:104D60000F90DF91CF911F910F91FF90EF90DF9007
:104D7000CF90BF90AF909F908F907F906F905F90FB
:104D80004F903F902F900895CF93DF93EC010E94B6
:104D9000B824882311F01D8281E0DF91CF9108951E
:104DA0003F924F925F926F927F928F929F92AF92BB
:104DB000BF92CF92DF92EF92FF920F931F93CF9308
:104DC000DF93CDB7DEB72C970FB6F894DEBF0FBEDA
:104DD000CDBF5C01DC015B968D909C905C97169634
:104DE000CD90DD90ED90FC901997C114D104E104B1
:104DF000F10439F0BFEFCB1ADB0AEB0AFB0A312CC6
:104E000007C0F401C080D180E280F3803324339462
:104E1000F40181859285A385B4859C01AD012F5F46
:104E20003F4F4F4F5F4F29873A874B875C8726015B
:104E300037011D821E821F821886F40181859285AA
:104E4000A385B4852D813E814F8158852817390768
:104E50004A075B0708F063C089859A85AB85BC85E6
:104E60008C159D05AE05BF0550F482E0C82ED12CEF
:104E7000E12CF12C92E0492E512C612C712C9E01D9
:104E80002F5F3F4FB701A601C4010E94963A8823C5
:104E900009F445C089819A81AB81BC81892B8A2B19
:104EA0008B2B41F0260137019FEF491A590A690AF5
:104EB000790A05C0C414D504E604F70491F02D81E5
:104EC0003E814F8158852F5F3F4F4F4F5F4F2D835E
:104ED0003E834F8358873FEFC31AD30AE30AF30A8E
:104EE000ACCF0FEF1FEF2FEF3FE0B301A201C401E2
:104EF0000E94F539882399F0D50116964D915D9160
:104F00006D917C911997411551056105710549F025
:104F100093018201C4010E94F539811102C080E031
:104F20002AC0D50116964D925D926D927C9219978A
:104F3000332051F0D301C2010196A11DB11DF4012E
:104F400080839183A283B383F5018789908DA18D9E
:104F5000B28D892B8A2B8B2B69F4D50157964D92F4
:104F60005D926D927C925A9714968C9114978068FA
:104F700014968C9381E02C960FB6F894DEBF0FBE8A
:104F8000CDBFDF91CF911F910F91FF90EF90DF90F8
:104F9000CF90BF90AF909F908F907F906F905F90D9
:104FA0004F903F9008952F923F924F925F926F9251
:104FB0007F928F929F92AF92BF92CF92DF92EF92A9
:104FC000FF920F931F93CF93DF9300D000D0CDB704
:104FD000DEB78C015B011A01DC0115968C911597E7
:104FE0008130C9F414968C9181FF15C082FF1DC0D9
:104FF000F801438954896589768982859385A485DA
:10500000B58584179507A607B70779F0C8010E94F0
:10501000F92481110AC081E090E0D80113969C9395
:105020008E93129780E090E03AC161012091A10334
:105030003091A2033E832D8381C05B968D919C911C
:105040005C97FC0174802FEF270D2A013B0139E0AA
:1050500076946794579447943A95D1F7722E7420BA
:105060007A01F1E0FF22772009F474C080E092E039
:105070008E199F0946018C159D0508F44C01D80135
:105080005B962D913C915C9716968D919D910D901C
:10509000BC91A02D0297A109B109F901058404C0B2
:1050A000880F991FAA1FBB1F0A94D2F74685578500
:1050B00060897189840F951FA61FB71F9C01AD01E0
:1050C000270D311D411D511D29013A01811432E086
:1050D000930609F086C08091060290910702A09184
:1050E0000802B0910902481659066A067B0659F46F
:1050F0008FEF9FEFDC018093060290930702A0934D
:105100000802B09309029501B301A2018D819E812D
:105110000E942024882309F47ECF9EEFB91AC81874
:10512000D908F80182859385A485B585880D991DD8
:10513000A11DB11D82879387A487B587D8011A96D0
:105140004D915D916D917C911D97C114D10409F031
:1051500074CF87C0E114F10409F088CF16964D9101
:105160005D916D917C91199741155105610571050E
:1051700059F457968D919D910D90BC91A02D00975B
:10518000A105B10541F521C09E012F5F3F4F0E944F
:10519000963A882309F447CF89819A81AB81BC81F3
:1051A000F801238D348DF9012789203129F048EF4A
:1051B0005FEF6FEF7FE004C048EF5FEF60E070E00B
:1051C00084179507A607B70730F0C8010E94D026BC
:1051D00081114CCF20CFF80186839783A087B187B8
:1051E00045CFE114F10429F5D8011A964D915D914E
:1051F0006D917C911D9753968D919D910D90BC91D1
:10520000A02D481759076A077B0798F00E9493382A
:10521000882309F400CF4092060250920702609260
:105220000802709209028091A30381608093A30316
:1052300008C041E0C301B2010E94CA38882309F4C2
:10524000EACED501F701E755FC4F9F01280D391D26
:105250002E173F0719F08D918193FACFA80CB91C36
:105260005ECFF80183899489A589B689841795074B
:10527000A607B70738F4438B548B658B768B8481F4
:1052800080688483F801848183FD02C0C10107C066
:10529000C8010E94B824882309F4BDCEF7CF269612
:1052A0000FB6F894DEBF0FBECDBFDF91CF911F9137
:1052B0000F91FF90EF90DF90CF90BF90AF909F90B5
:1052C0008F907F906F905F904F903F902F900895B8
:1052D000CF93DF931F92CDB7DEB7698341E050E0F3
:1052E000BE016F5F7F4F0E94D3270F90DF91CF9158
:1052F0000895CF93DF93EC01898D9A8D009739F44F
:1053000081E090E09B838A8380E090E00BC0FC0109
:10531000138212820E94D327E98DFA8D2281338174
:10532000232B71F7DF91CF910895CF93DF931F92D5
:10533000CDB7DEB741E050E0BE016F5F7F4F0E9406
:105340009025019719F4898190E002C08FEF9FEFBB
:105350000F90DF91CF910895FC01818D928D009780
:1053600011F00C9495298FEF9FEF08950F931F93E1
:10537000CF93DF93FC01818D928D0097B9F0EF01FF
:105380000E9495298C010F3F8FEF180791F0898DAE
:105390009A8DFC014285538564857585415051097C
:1053A000610971090E94F924C80105C080E090E0FC
:1053B00002C08FEF9FEFDF91CF911F910F91089562
:1053C000FC01DB0112968D919C911397938382834C
:1053D00089E292E09183808314968C911497848360
:1053E00015968C911597858316964D915D916D91CB
:1053F0007C91199746835783608771871A964D91E0
:105400005D916D917C911D97428753876487758765
:105410001E964D915D916D917C915197468757876E
:10542000608B718B52968C915297828B53964D91D3
:105430005D916D917C915697438B548B658B768BE8
:1054400057964D915D916D917C915A97478B508FF6
:10545000618F728F5B968D919C915C97948F838FF7
:1054600008950F931F93CF93DF93EC018B011016D8
:105470001106B4F4FE01859194912496FE013297B1
:10548000659174918F3F2FEF920729F480E090E0AF
:105490000E94EB4002C00E94E92E04501109E7CFA0
:1054A000DF91CF911F910F910895DF92EF92FF92BC
:1054B0000F931F93CF93DF93CDB7DEB768970FB6E7
:1054C000F894DEBF0FBECDBF7C018B011016110614
:1054D00054F5F70184913196D490F2E0EF0EF11C6F
:1054E0008F3741F46D2D70E080E090E00E94EB403A
:1054F000D12C13C02E2DDE011196F701AD019E2F88
:10550000921B9D1520F494919D933196F8CFED0C4C
:10551000F11C6D2D90E00E948E1AED2DF0E0329678
:105520000E1B1F0BD3CF68960FB6F894DEBF0FBECD
:10553000CDBFDF91CF911F910F91FF90EF90DF9042
:1055400008950895FC016370658B8481958126819F
:105550003781613039F0633029F091878087338754
:1055600022870895318720879387828708956F92D5
:105570007F928F929F92AF92BF92CF92DF92EF92E3
:10558000FF920F931F93CF93DF93EC014B015A01CE
:1055900069013801E881F9810680F781E02D1995CC
:1055A000E881F9810684F785E02D87019601A50140
:1055B000B401CE011995A501460D571D4150510961
:1055C000E881F9810684F785E02D9601B401CE01CA
:1055D0001995E881F9810484F585E02D9301A501F1
:1055E000B401CE011995C80CD91CB60161507109DE
:1055F000E881F9810484F585E02D9301A501CE01B0
:105600001995E881F9810288F389E02DCE01DF91B7
:10561000CF911F910F91FF90EF90DF90CF90BF90AF
:10562000AF909F908F907F906F9019948F929F92E0
:10563000AF92BF92CF92DF92EF92FF920F931F93A0
:10564000CF93DF934C016B015A01E901DC01ED912D
:10565000FC916217730781F40417150724F48B2D4E
:105660005801042F182F0A191B0998012F5F3F4F6B
:10567000008CF18DE02D12C04017510709F5261757
:10568000370724F48D2D6901C62FD82F9E012C19C0
:105690003D092F5F3F4F028CF38DE02D8701A5015F
:1056A000B601C4011995DF91CF911F910F91FF9021
:1056B000EF90DF90CF90BF90AF909F908F90089524
:1056C0000680F781E02D1995D401ED91FC910088B9
:1056D000F189E02D9E01A501B601C4011995D401FF
:1056E000ED91FC910288F389E02DC401DF91CF9107
:1056F0001F910F91FF90EF90DF90CF90BF90AF90F0
:105700009F908F901994EF92FF920F931F93DC015B
:105710001A960D911C911B9718962D913C911997F3
:10572000ED91FC91048CF58DE02D7B0140E050E083
:1057300060E070E019951F910F91FF90EF90089530
:105740004F925F926F927F928F929F92AF92BF9291
:10575000CF92DF92EF92FF920F931F93CF93DF933D
:105760006C012B015A0139014801DC01ED91FC91DA
:105770000680F781E02D1995E201640C751CD601B5
:10578000ED91FC91C615D7055CF40484F585E02DF8
:1057900087019401A501BE01C60119952196EFCF9D
:1057A0000288F389E02DC601DF91CF911F910F91FF
:1057B000FF90EF90DF90CF90BF90AF909F908F9031
:1057C0007F906F905F904F9019948F929F92AF92BD
:1057D000BF92CF92DF92EF92FF920F931F93CF93DE
:1057E000DF93EC015B014A016901E881F9810680E0
:1057F000F781E02D199595012C0D3D1D21503109A2
:10580000E881F9810088F189E02D78018401A40103
:10581000B501CE011995E881F9810288F389E02D5F
:10582000CE01DF91CF911F910F91FF90EF90DF900C
:10583000CF90BF90AF909F908F9019948F929F922E
:10584000AF92BF92CF92DF92EF92FF920F931F938E
:10585000CF93DF93EC015B014A0169017801E88194
:10586000F9810680F781E02D1995C80CD91C8601B5
:1058700001501109E881F9810088F189E02D950135
:10588000A401B501CE011995E881F9810288F38957
:10589000E02DCE01DF91CF911F910F91FF90EF90FE
:1058A000DF90CF90BF90AF909F908F901994089504
:1058B000EF92FF920F931F93DC01ED91FC91048C0A
:1058C000F58DE02D19951F910F91FF90EF900895A0
:1058D0000F931F93DC01ED91FC91028CF38DE02D71
:1058E00019951F910F9108950F931F93DC01ED916E
:1058F000FC91008CF18DE02D19951F910F91089569
:10590000DC01ED91FC910480F581E02D19942F923A
:105910003F924F925F926F927F928F929F92AF923F
:10592000BF92CF92DF92EF92FF920F931F93CF938C
:10593000DF9300D000D0CDB7DEB72C017E836D831E
:105940006A015901C801FC82EB824801841A950A58
:1059500097FE03C091948194910835012D813E8179
:10596000621A730A77FE03C0719461947108681417
:1059700079045CF43A2D2B2D5C01832F922F3D810D
:105980002E81DE82CD82C32ED22EAD81BE81AA169B
:10599000BB065CF43C2D2D2D6C01832F922F3D8195
:1059A0002E81BE82AD82A32EB22E85012D813E8135
:1059B000021B130B1C012C183D0837FE03C0319449
:1059C00021943108780117FF03C03FEFE31AF30A6F
:1059D000F594E794C816D9062CF08FEF9FEF9A83C1
:1059E000898304C0A1E0B0E0BA83A9832D813E8100
:1059F000A216B30624F1D201ED91FC910084F18549
:105A0000E02D2B813C816814790424F44D815E8162
:105A1000B60103C0A6016D817E81C2011995E2180D
:105A2000F308F7FE06C029813A81C20ED31EE00EAC
:105A3000F11E8D819E8101969E838D83D7CF269600
:105A40000FB6F894DEBF0FBECDBFDF91CF911F918F
:105A50000F91FF90EF90DF90CF90BF90AF909F900D
:105A60008F907F906F905F904F903F902F90089510
:105A70000F931F93CF93DF93FC01A685B7858D010C
:105A8000005C1F4FE8018881998101968F739927E7
:105A9000AD014E5B5F4FEA01288139812817390734
:105AA000D1F3E80128813981A20FB31F6C93A68539
:105AB000B785A05CBF4F11969C938E93A689B7893A
:105AC0002C9181E090E0078C02C0880F991F0A9406
:105AD000E2F7822B8C9381E081A30488F589E02D85
